{
  "contractName": "Battleship",
  "abi": [
    {
      "inputs": [],
      "payable": false,
      "stateMutability": "nonpayable",
      "type": "constructor"
    },
    {
      "anonymous": false,
      "inputs": [
        {
          "indexed": false,
          "internalType": "address",
          "name": "creator",
          "type": "address"
        },
        {
          "indexed": false,
          "internalType": "uint256",
          "name": "size",
          "type": "uint256"
        },
        {
          "indexed": false,
          "internalType": "uint256",
          "name": "timePerMove",
          "type": "uint256"
        },
        {
          "indexed": false,
          "internalType": "address",
          "name": "player1",
          "type": "address"
        },
        {
          "indexed": false,
          "internalType": "address",
          "name": "player2",
          "type": "address"
        }
      ],
      "name": "boardCreated",
      "type": "event"
    },
    {
      "constant": false,
      "inputs": [
        {
          "internalType": "uint256",
          "name": "_timePerMove",
          "type": "uint256"
        },
        {
          "internalType": "address",
          "name": "_player2",
          "type": "address"
        }
      ],
      "name": "createBoard",
      "outputs": [],
      "payable": false,
      "stateMutability": "nonpayable",
      "type": "function"
    },
    {
      "constant": false,
      "inputs": [],
      "name": "makeMoove",
      "outputs": [],
      "payable": false,
      "stateMutability": "nonpayable",
      "type": "function"
    },
    {
      "constant": false,
      "inputs": [
        {
          "internalType": "uint256",
          "name": "PositionX",
          "type": "uint256"
        },
        {
          "internalType": "uint256",
          "name": "PositionY",
          "type": "uint256"
        }
      ],
      "name": "setBomb",
      "outputs": [],
      "payable": false,
      "stateMutability": "nonpayable",
      "type": "function"
    },
    {
      "constant": false,
      "inputs": [
        {
          "internalType": "address",
          "name": "_player2",
          "type": "address"
        }
      ],
      "name": "createGame",
      "outputs": [],
      "payable": false,
      "stateMutability": "nonpayable",
      "type": "function"
    }
  ],
  "bytecode": "0x60806040526000600360006101000a81548160ff0219169083151502179055506040518060400160405280600481526020017f75736572000000000000000000000000000000000000000000000000000000008152506004908051906020019061006a929190610098565b506001600560006101000a81548160ff02191690831515021790555034801561009257600080fd5b5061013d565b828054600181600116156101000203166002900490600052602060002090601f016020900481019282601f106100d957805160ff1916838001178555610107565b82800160010185558215610107579182015b828111156101065782518255916020019190600101906100eb565b5b5090506101149190610118565b5090565b61013a91905b8082111561013657600081600090555060010161011e565b5090565b90565b6103918061014c6000396000f3fe608060405234801561001057600080fd5b506004361061004c5760003560e01c8063474d0b5a14610051578063768a2111146100955780639ed3f051146100e3578063eb6a18ff1461011b575b600080fd5b6100936004803603602081101561006757600080fd5b81019080803573ffffffffffffffffffffffffffffffffffffffff169060200190929190505050610125565b005b6100e1600480360360408110156100ab57600080fd5b8101908080359060200190929190803573ffffffffffffffffffffffffffffffffffffffff1690602001909291905050506101a9565b005b610119600480360360408110156100f957600080fd5b810190808035906020019092919080359060200190929190505050610356565b005b61012361035a565b005b336000806101000a81548173ffffffffffffffffffffffffffffffffffffffff021916908373ffffffffffffffffffffffffffffffffffffffff16021790555080600160006101000a81548173ffffffffffffffffffffffffffffffffffffffff021916908373ffffffffffffffffffffffffffffffffffffffff16021790555050565b81600281905550336000806101000a81548173ffffffffffffffffffffffffffffffffffffffff021916908373ffffffffffffffffffffffffffffffffffffffff16021790555080600160006101000a81548173ffffffffffffffffffffffffffffffffffffffff021916908373ffffffffffffffffffffffffffffffffffffffff1602179055507fc993dfb705703930d09010997799d3654e4f4daf988ab49d9b4470df3034005133600a6002546000809054906101000a900473ffffffffffffffffffffffffffffffffffffffff16600160009054906101000a900473ffffffffffffffffffffffffffffffffffffffff16604051808673ffffffffffffffffffffffffffffffffffffffff1673ffffffffffffffffffffffffffffffffffffffff1681526020018581526020018481526020018373ffffffffffffffffffffffffffffffffffffffff1673ffffffffffffffffffffffffffffffffffffffff1681526020018273ffffffffffffffffffffffffffffffffffffffff1673ffffffffffffffffffffffffffffffffffffffff1681526020019550505050505060405180910390a15050565b5050565b56fea265627a7a72315820e0d73764e7d752abb191190b414d42d6502683dadc19c8db9f8fcacd276df4ed64736f6c63430005100032",
  "source": "// SPDX-License-Identifier: MIT\npragma solidity >=0.4.22 <0.8.0;\n\ncontract Battleship {\n    // Players\n    address player1;\n    address player2;\n\n    // CONSTANTS\n    uint256 timePerMove;\n\n    // Ships\n    struct Ships {\n        string name;\n        uint256 size;\n    }\n\n    // State\n\n    // uint256 width = 10\n    bool isGameOver = false;\n    string currentPlayer = \"user\";\n    bool isHorizontal = true;\n\n    // Field\n    bool[10][10] flags;\n\n    function createBoard(uint256 _timePerMove, address _player2) public {\n        timePerMove = _timePerMove;\n        player1 = msg.sender;\n        player2 = _player2;\n        emit boardCreated(msg.sender, 10, timePerMove, player1, player2);\n    }\n\n    function makeMoove() public {}\n\n    function setBomb(uint256 PositionX, uint256 PositionY) public {}\n\n    modifier restricted() {\n        require(true, \"This function is restricted to the contract's owner\");\n        _;\n    }\n\n    function createGame(address _player2) public {\n        player1 = msg.sender;\n        player2 = _player2;\n    }\n\n    // Events\n    event boardCreated(\n        address creator,\n        uint256 size,\n        uint256 timePerMove,\n        address player1,\n        address player2\n    );\n\n    constructor() public {}\n}\n",
  "sourcePath": "/home/dizzle/Dev/playground/battleshipClone/ComsystoBattleShipsBlockchain/contracts/Battleship.sol",
  "compiler": {
    "name": "solc",
    "version": "0.5.16+commit.9c3226ce.Emscripten.clang"
  },
  "schemaVersion": "3.4.7",
  "updatedAt": "2022-07-31T19:20:41.373Z",
  "networkType": "ethereum",
  "devdoc": {
    "methods": {}
  },
  "userdoc": {
    "methods": {}
  }
}